:020000041000EA
:1000000000B5324B212058609868022188439860DF
:10001000D860186158612E4B002199600221596106
:100020000121F02299502B49196001219960352056
:1000300000F044F80222904214D00621196600F024
:1000400034F8196E01211966002018661A6600F04E
:100050002CF8196E196E196E052000F02FF8012189
:100060000842F9D1002199601B49196000215960AB
:100070001A491B48016001219960EB211966A021F2
:10008000196600F012F800219960164914480160C1
:100090000121996001BC002800D000471248134993
:1000A000086003C880F30888084703B5996A0420EC
:1000B0000142FBD001200142F8D103BD02B5186610
:1000C0001866FFF7F2FF186E186E02BD00000240BE
:1000D000000000180000070000035F00212200005C
:1000E000F4000018222000A00001001008ED00E03C
:1000F00000000000000000000000000074B24E7A12
:1001000000200420F7010010C3010010C5010010F9
:10011000C1010010C1010010C1010010C101001097
:10012000C1010010C1010010C1010010C701001081
:10013000C1010010C1010010C9010010CB01001065
:10014000CD010010CD010010CD010010CD01001037
:10015000CD010010CD010010CD010010CD01001027
:10016000CD010010CD010010CD010010CD01001017
:10017000CD010010CD010010CD010010CD01001007
:10018000CD010010CD010010CD010010CD010010F7
:10019000CD010010CD010010CD010010CD010010E7
:1001A000CD010010CD010010CD010010CD010010D7
:1001B000CD010010CD010010CD010010CD010010C7
:1001C00000BE00BE00BE00BE00BE00BE00F04BF888
:1001D000103800BEF2EB887100C4001020C400107B
:1001E0003402001090A31AE700202149086006C8D5
:1001F00081F3088810471F48006800282FD10DA4FC
:100200000ECC002902D000F012F8F9E71A491B4A77
:10021000002000E001C19142FCD1194988471949E9
:1002200088471949884700BEFDE701C901C29A42C3
:10023000FBD3704720C40010C0000020600D0020D8
:10024000C0D000100000042000000420C0D0001026
:1002500000100420001004200000000070470B482C
:1002600004F0A2FC0047EFF30580C0B27047000025
:1002700008ED00E0000000D0600D0020C41C00204C
:10028000ED30001009180010A9300010575600007A
:1002900006005250ABB3605308BB0010060052502A
:1002A000861C030218BB0010060052505422A29D67
:1002B00024BB001005005250DE65F468C0D0001069
:1002C000F8B5C0460448054B10B5834203D0044B33
:1002D000002B00D0984710BD600D0020600D00205D
:1002E0000000000006480749091A8B10C90FC918F9
:1002F00010B5491003D0044B002B00D0984710BD17
:10030000600D0020600D00200000000010B5074CBB
:100310002378002B09D1FFF7D5FF054B002B02D026
:10032000044800E000BF0123237010BD680E0020C8
:1003300000000000B09A0010054B10B5002B03D050
:100340000449054800E000BFFFF7CCFF10BDC046E0
:10035000000000006C0E0020B09A0010022800D0AF
:10036000704708290DD00429FAD1084B9B6A084A26
:1003700012689B1A074A9342F2D9074B01221A705E
:10038000EEE7024B9A6A024B1A60E9E7004005402B
:100390002C140020F0490200BC1C002000B583B0E2
:1003A0001B4B9B6910210A001A4019420DD01949B4
:1003B000194809F041F8002823D0184B01221A707F
:1003C000174B00221A8003B000BD6B46D91D002ACE
:1003D00009D10F4B9B69DB06FBD40D4B1B680B70DF
:1003E00001320131F3E76B4607331B780D4A137076
:1003F000FF2BDCD00A490A880748835401320A805F
:10040000D5E70949044809F017F80028D5D1DAE7FB
:10041000004003407CA100101C1B0020BD1C0020DC
:10042000B21C0020BF1C0020B09A001070B505005F
:1004300008F05AFE053005F001FB0400280008F022
:1004400053FE421D0021200005F016FB200008F09D
:100450004BFE20180322084905F014FB2900200058
:1004600008F0B4FD200008F03FFE201803220349E5
:1004700005F008FB200070BDC09B00105CBF0010A1
:1004800070B582B00400802200211B4805F0F4FA08
:100490002000FFF7CBFF0600200008F025FE411DDD
:1004A0003200164805F078FC154B00221A70154BE7
:1004B0009B69203214001C401A421BD0300005F00A
:1004C000CFFA02B070BD0F4B9B699B06FBD410782E
:1004D0000C4B1860013101320029F4D00135300095
:1004E00008F002FEA842E9D0735D6A460732137035
:1004F0002100F1E70025F2E71C1B0020C49B00103F
:10050000BD1C00200040034030B587B0224805F0F4
:1005100011FC03A8214B020012CB12C21B781370EE
:100520006C461F4B220022CB22C2198811809B7877
:100530009370FFF7A5FF1B4805F0FCFB1A4805F078
:10054000F9FB1A4802F08EF92100194808F074FFEF
:10055000041E184B18601AD01749154808F06CFF94
:10056000164D2860684608F0BFFD245C303CE4B2BC
:100570002100134805F010FC124805F0DBFB2B6846
:10058000002B02D0200007B030BD3C24FAE70D4814
:1005900005F0D0FB3C24F5E7E09B00104C9C0010DC
:1005A000B49B0010049C0010DC9A0010881300001B
:1005B0001C1B0020D4180020049B0010D018002021
:1005C0002C9C0010849B0010F0B587B03A4805F0D1
:1005D000B1FB03A8394B020032CB32C26C46384B18
:1005E000220062CB62C2FFF74BFF364805F0A2FB48
:1005F000354805F09FFB354802F034F921003448B6
:1006000008F01AFF041E334B18604FD0684608F0FC
:100610006BFD20182F4B18602C2108F0FDFC040006
:100620002D4908F009FF051B280005F007FA060010
:100630002A00002105F020FA611C6A1E300008F033
:1006400081FD300008F0D2F90400300005F008FA0E
:1006500022491F4808F0F0FE214B1860002829D0DD
:100660001C4B18683C2108F0D7FCE61C8619671C57
:10067000380005F0E3F905003A00002105F0FCF927
:1006800022003100280008F05DFD2100154805F02A
:1006900083FB2900144805F07FFB144805F04AFB52
:1006A000280005F0DDF9124807B0F0BD0F4805F04D
:1006B00041FBF9E70F48F7E7589C0010C49C001075
:1006C000D09C00107C9C0010DC9A00108813000065
:1006D0001C1B0020D41800205CBF0010049B0010DD
:1006E000D01800200C9B0010309B0010A49C001020
:1006F00080A10010B89A001010B584B01B4805F016
:1007000019FB01AC1A4B220003CB03C21B881380D8
:100710002000FFF7B5FE174805F00CFB164805F062
:1007200009FB164802F09EF82100154808F084FEE7
:10073000144B1860002811D01349114808F07CFEB2
:10074000124B186000280ED01149124805F024FB06
:10075000114805F0EFFA002004B010BD0E4805F076
:10076000E9FA0120F8E70120F6E7C046DC9C00101A
:10077000709D0010FC9C0010DC9A00108813000093
:100780001C1B0020D4180020049B0010D01800204F
:10079000209D00102C9D0010509D0010F0B5CE46FD
:1007A000474680B58DB005000F0016007E4805F065
:1007B000C1FA09AC7D4B220003CB03C21B88138016
:1007C0002000FFF75DFE7A4805F0B4FA794805F09D
:1007D000B1FA794802F046F82100784808F02CFE7A
:1007E000774B1860002811D07649744808F024FE31
:1007F000754B1860002800D1C0E07449744805F0BA
:10080000CBFA714B1B68002B00D1C7E006AA714BD5
:1008100013CB13C2002D00D1B2E0312306ACA3727A
:100820002000FFF72DFE6C4805F084FA614805F0C2
:1008300081FA614802F016F82100604808F0FCFDDA
:100840005F4B1860002811D05E495C4808F0F4FD49
:100850005D4B1860002800D194E06049604805F0C5
:100860009BFA594B1B68002B00D199E003AB9846CB
:100870005C4B424603CB03C21B88138002AB9946F4
:100880002C234A461380584B1A8869468A809B78E5
:100890008B71404608F028FC0400380008F024FC66
:1008A0002418484608F020FC2418300008F01CFCEE
:1008B000241801A808F018FC2018013005F0BEF833
:1008C0000500404608F010FC0400380008F00CFC5D
:1008D0002418484608F008FC2418300008F004FCEE
:1008E000241801A808F000FC221801320021280079
:1008F00005F0C2F84146280008F068FB39002800DE
:1009000008F064FB4946280008F060FB310028002D
:1009100008F05CFB01A9280008F058FB2800FFF74D
:10092000AFFD324805F006FA224805F003FA2248E6
:1009300001F098FF2900214808F07EFD204B186047
:10094000002823D0280005F08BF81E491B4808F02A
:1009500073FD1D4B1860002816D02049244805F06F
:100960001BFA194B1B68002B1CD0224805F0E2F93A
:1009700000200DB0C0BCB946B046F0BD1E493DE7F1
:1009800030234BE71C4969E71B49E7E7280005F0DE
:1009900067F81A4805F0CEF90120EAE70120E8E7F8
:1009A0000120E6E70120E4E7949D0010E09E00109E
:1009B000BC9D0010DC9A0010881300001C1B002056
:1009C000D4180020049B0010D0180020849D001033
:1009D000E09D0010EC9E0010F89D00108C9D001012
:1009E000249E0010F89E0010C8A10010409E001028
:1009F0006C9E0010909E00107C9D0010B89E001010
:100A0000F0B5DE4657464E464546E0B58BB08246C9
:100A100089461700584805F08DF907AE574B32004C
:100A200003CB03C2198811809B78937006AB98465C
:100A30002C2342461380300008F056FB0500504638
:100A400008F052FB2D18404608F04EFB04002D180C
:100A5000484608F049FB2D186519380008F044FB9A
:100A60002818013004F0EAFF0400300008F03CFBD5
:100A70000500504608F038FBAB468344404608F07A
:100A800033FB05008344484608F02EFB58442D18DC
:100A9000380008F029FB2D186A1C0021200004F002
:100AA000EBFF3100200008F091FA5146200008F0D9
:100AB0008DFA4146200008F089FA4946200008F0E6
:100AC00085FA4146200008F081FA3900200008F03C
:100AD0007DFA2000FFF7D4FC294805F02BF92948BE
:100AE00005F028F9284801F0BDFE200004F0B8FF09
:100AF00003A8264B020012CB12C21B7813706C465F
:100B0000234B220062CB62C2FFF7BAFC214805F0FA
:100B100011F9214805F00EF9204801F0A3FE21004B
:100B20001F4808F089FC041E1E4B18601CD01E498B
:100B30001B4808F081FC1D4B1860002819D068463E
:100B400008F0D2FA245C303CE4B22100184805F0E9
:100B500023F9184805F0EEF820000BB0F0BCBB46B6
:100B6000B246A946A046F0BD124805F0E3F83C2481
:100B7000F2E73C24F0E7C046049F0010C09F00103D
:100B8000249F0010449F001010270000CC9F0010ED
:100B9000D89F00105C9F0010DC9A001088130000A2
:100BA0001C1B0020D4180020049B0010D01800202B
:100BB000849F0010A09F0010F0B587B00700344854
:100BC00005F0B8F803AE334B320003CB03C21B88E9
:100BD0001380314B1A6801929A8869460A819B7981
:100BE0008B72300008F080FA0400380008F07CFABC
:100BF0002018013004F022FF0400300008F074FADD
:100C00000500380008F070FA2A180132002120008F
:100C100004F032FF3100200008F0D8F9390020003C
:100C200008F0D4F92000FFF72BFC200004F018FF97
:100C30001A4805F07FF81A4805F07CF8194801F0C9
:100C400011FE01A9184808F0F7FB184B186000289E
:100C500019D01749144808F0EFFB164B186000280C
:100C60000DD01549154805F097F8154805F062F8BC
:100C7000104B1B68002B04D0002007B0F0BD1149B9
:100C8000F0E70120F9E70E4805F054F80120F4E7F9
:100C9000F09F001070A000107CA0001014A00010A5
:100CA000DC9A0010881300001C1B0020D4180020C0
:100CB000049B0010D0180020E49F00103CA00010FE
:100CC0004CA000107C9D0010F0B5CE46474680B584
:100CD00087B080460F00434805F02CF803AE424B26
:100CE000320003CB03C2198811809B78937001AB4B
:100CF00099463E4B1A6801929B884A469380300081
:100D000008F0F2F90400404608F0EEF924184846CD
:100D100008F0EAF92418380008F0E6F92018013044
:100D200004F08CFE0500300008F0DEF904004046B7
:100D300008F0DAF92418484608F0D6F924183800E3
:100D400008F0D2F9221801320021280004F094FEA4
:100D50003100280008F03AF94146280008F036F939
:100D60004946280008F032F93900280008F02EF929
:100D70002800FFF785FB280004F072FE1C4804F0F1
:100D8000D9FF1C4804F0D6FF1B4801F06BFD310071
:100D90001A4808F051FB1A4B186000281CD019495A
:100DA000164808F049FB184B1860002810D0174966
:100DB000174804F0F1FF174804F0BCFF124B1B6802
:100DC000002B07D0002007B0C0BCB946B046F0BD2C
:100DD0001149EDE70120F6E70E4804F0ABFF0120D2
:100DE000F1E7C04690A0001014A1001020A100104F
:100DF000B0A00010DC9A0010881300001C1B00201B
:100E0000D4180020049B0010D018002088A00010E7
:100E1000D4A00010F4A0001084A00010F0B5C646C5
:100E200000B58EB05C4804F085FF0BAC5B4B220034
:100E300003CB03C2198811809B78937008AA584B82
:100E400003CB03C21B7813702000FFF719FB554832
:100E500004F070FF544804F06DFF544801F002FDA7
:100E60002100534808F0E8FA041E524B186000D1E4
:100E70008FE00BA808F038F9201808A908F0DCFA70
:100E800005004C4B18604C4908F0D6FA4B4B1860E3
:100E9000002800D17BE0441B0134200004F0CEFD8B
:100EA000070008A808F020F929182200380008F0E7
:100EB00049F90024002507E003AB5C550135EDB28C
:100EC000042D11D00134A4B22600380008F00CF92A
:100ED000844209D23B5D2E2BEED00D2BF0D1BE19F2
:100EE00073780A2BECD1E7E704A8354B060016CB44
:100EF00016C61B68336003AC25782A00390008F059
:100F000021F9691C7918637898465A1B013A05A89B
:100F100008F018F94346591C7918A578EA1A013ADD
:100F200006A808F00FF9691C7918E278521B013AFB
:100F3000300008F007F9082004F080FD214B18600C
:100F40000024032C0BDCA00004AB9C46604407F09B
:100F50004DFD63001B4A1268D0520134F1E7194C71
:100F60002068018842888388C0880090164804F071
:100F700013FF164804F0DEFE380004F071FD20680F
:100F800004F06EFD00200EB080BCB846F0BD01201C
:100F9000F9E70120F7E7C04628A10010C0A1001022
:100FA000CCA1001044A1001060A10010983A0000EC
:100FB0001C1B0020D418002078A10010D01800209D
:100FC00064AC0010D818002084A10010A4A1001067
:100FD00030B587B01C4804F0ADFE6C461B4B2200B8
:100FE00023CB23C223CB23C22000FFF749FA1848A2
:100FF00004F0A0FE174804F09DFE174801F032FCF3
:101000002100164808F018FA154B1860002819D06E
:101010001449124808F010FA134B186000280DD03C
:101020001249134804F0B8FE124804F083FE0E4B38
:101030001B68002B04D0002007B030BD0E49F0E73C
:101040000120F9E70120F7E7E0A1001014A2001049
:1010500044A10010DC9A0010881300001C1B002023
:10106000D4180020049B0010D0180020DCA1001030
:10107000F8A10010A4A10010D8A1001070B588B08C
:101080002F4804F057FE06AC2E4B220003CB03C2C0
:1010900004AA2D4B19680491998891809B799371CA
:1010A0002000FFF7EDF9294804F044FE284804F039
:1010B00041FE284801F0D6FB2100274808F0BCF982
:1010C000041E264B186002D1002008B070BD06A88F
:1010D00008F00AF8201804A908F0AEF91F4E306095
:1010E0001F491D4808F0A8F91E4B186001AC1E4BA3
:1010F000220023CB23C20C2004F0A0FC05000C220C
:10110000002104F0B9FC31680C22280008F01AF81C
:101110002900164804F040FE200007F0E5FF0138E2
:10112000281807F063FC0400280004F099FC210053
:101130000F4804F031FE0F4804F0FCFDE0B2C4E7B4
:101140002CA20010B8A20010C0A2001044A10010F0
:10115000DC9A0010881300001C1B0020D41800200B
:10116000049B0010D0180020C8A2001054A2001048
:101170006CA2001090A2001010B5002405E01148E8
:1011800004F0D8FD104801F06DFB132C15DC013480
:1011900021000E4804F000FEFFF770FF01280CD973
:1011A00005280AD00228EAD00328EED1084804F026
:1011B000C1FD084804F0BEFD02E0074804F0BAFD96
:1011C00010BDC046FCA2001088130000D4A200107D
:1011D00018A3001040A300106CA30010F0B585B058
:1011E000314804F0A7FD02AC304B220003CB03C210
:1011F0002F4B1A6800929A8869468A809B798B7176
:101200002000FFF73DF92B4804F094FD2A4804F034
:1012100091FD2A4801F026FB2100294808F00CF92D
:10122000041E284B186039D002A807F05DFF201873
:10123000694608F001F90400224F3860224920482D
:1012400008F0FAF8214E3060041B0134200004F04D
:10125000F5FB05002200002104F00EFC396832681D
:10126000521A0132280007F06DFF2900184804F0D7
:1012700093FD2800083007F0B9FB0400C6B228002F
:1012800004F0EEFBFF212140124804F085FD1248D6
:1012900004F050FD012E04D0012000E0012005B033
:1012A000F0BD0020FBE7C04694A30010F8A3001097
:1012B00000A4001044A10010DC9A00108813000064
:1012C0001C1B0020D4180020049B0010D018002004
:1012D00054A20010B4A30010D8A3001010B5094800
:1012E00004F028FDFFF77AFF002803D1064804F038
:1012F00021FD10BD054804F01DFD054804F01AFD50
:10130000F7E7C04608A4001024A4001044A400106D
:1013100060A40010F0B585B02E4804F00BFD2E4BF4
:101320001A6802929A8869468A819B798B732B4B43
:101330001A6800929B888B8002A8FFF7A1F82848C2
:1013400004F0F8FC274804F0F5FC274801F08AFA7D
:1013500002A9264808F070F8041E254B186002D137
:10136000002005B0F0BD02A807F0BEFE20186946B7
:1013700008F062F804001E4F38601E491B4808F050
:101380005BF81D4E3060041B0134200004F056FB56
:1013900005002200002104F06FFB39683268521A00
:1013A0000132280007F0CEFE2900144804F0F4FCB6
:1013B0002800093007F01AFB0400280004F050FB55
:1013C00021000F4804F0E8FC0E4804F0B3FCE0B242
:1013D000C7E7C04684A40010FCA4001004A50010B8
:1013E00044A10010DC9A0010881300001C1B002090
:1013F000D4180020049B0010D018002054A2001024
:10140000ACA40010D0A40010F0B583B02E4804F0B6
:1014100091FC2E4B1A6800921B796A46137168463C
:10142000FFF72EF82A4804F085FC2A4804F082FCD5
:10143000294801F017FA6946284807F0FDFF041E05
:10144000274B18603BD0684607F04EFE20186946CF
:1014500007F0F2FF0400224F386022491F4807F0CE
:10146000EBFF214E3060041B0134200004F0E6FA4B
:1014700005002200002104F0FFFA39683268521A90
:101480000132280007F05EFE2900184804F084FCB1
:10149000684607F029FE0130281807F0A7FA040073
:1014A000280004F0DDFA2100114804F075FC114811
:1014B00004F040FC013C442C04D9012000E0012050
:1014C00003B0F0BD0020FBE70CA5001074A50010D0
:1014D00044A10010DC9A0010881300001C1B00209F
:1014E000D4180020049B0010D018002054A2001033
:1014F00030A5001050A5001010B5022000F052FBDE
:10150000D0231B0604229A62033A0021022000F035
:10151000ADFA034B01220C21022000F0F7FA10BDB6
:101520005D03001070B5E121194C4902200000F064
:1015300017FC0221002000F081FA0221012000F0B6
:101540007DFA226BC0231B021A4080256D01114BCE
:101550002B431A60E26A602353406E221A400E4BFE
:101560002B431A60E16A10228A431A600B49142047
:1015700001F0DAFF0121142001F0BEFF5023A36324
:10158000626B183B1340064A15432B6070BDC04682
:1015900000400340304003402C4003409D030010B6
:1015A00034400340014B024A1A6070470CED00E0E2
:1015B0000400FA05F0B5C64600B580460F001600D7
:1015C000154804F0B7FB002507E0144804F0B2FB0F
:1015D0001EE0134801F046F90135022D17DC3200F8
:1015E00039004046FFF7DAF8041EEED00D4804F04B
:1015F000A1FB022DEDD10C4804F09CFB0B4804F03C
:1016000099FB0B4801F02EF9FFF7CCFFE1E701242D
:10161000200080BCB846F0BD7CA50010A4A5001039
:1016200088130000C4A50010E4A500100CA600104B
:10163000B80B0000F8B507000E001500002405E007
:10164000124804F077FBF8BD0134E4B2022CFAD85A
:10165000611C0F4804F0A0FB2A0031003800FFF79E
:10166000CFF90128ECD00B4804F064FBFFF744F8F5
:10167000022CE9D1084804F05DFB084804F05AFB4D
:10168000074801F0EFF8FFF78DFFDDE760A60010D7
:1016900034A6001084A60010BCA600100CA60010F2
:1016A000B80B000070B5002408E0022C1BD01648CF
:1016B00004F040FB154801F0D5F82C00022C1EDC8C
:1016C000651C2900124804F067FBFFF723FE03287E
:1016D00015D0052813D00228E7D00028EDD10D48F9
:1016E00004F028FBE9E70C4804F024FB0B4804F065
:1016F00021FB0B4801F0B6F8FFF754FFD7E7094884
:1017000004F018FB70BDC04638A700101027000079
:10171000E0A6001054A700100CA700100CA60010A3
:10172000B80B000084A7001070B50025002405E068
:10173000124804F0FFFA124801F094F8022D0BDC75
:10174000013529000F4804F027FBFFF75DFE012457
:101750004440E4B2002CEBD0002C0BD10A4804F03A
:10176000E9FA0A4804F0E6FA094801F07BF8FFF7C5
:1017700019FF70BD074804F0DDFAFAE7FCA200107B
:1017800088130000B0A70010D4A700100CA600100A
:10179000B80B00000CA8001010B5FFF7C5FFFFF74D
:1017A00081FFFFF7E9FCFFF799FD114804F0C2FA49
:1017B000FFF70EFC01235840C0B2002810D00D489E
:1017C00004F0B8FA0C4804F0B5FAFFF727FB012340
:1017D0005840C0B2002807D0084804F0ABFA10BD4A
:1017E000074804F0A7FAEDE7064804F0A3FAF6E785
:1017F00028A800103CA8001074A8001094A800109D
:1018000058A80010B0A8001070B504F0D1FA6848CC
:1018100001F028F8674804F08DFAFFF783FEFFF720
:101820006BFE654804F086FA644801F01BF8FFF788
:10183000B3FF634A63490020FFF7BCFE002864D170
:101840006148624A0100FFF7F5FE6148FFF7B4F90D
:1018500000283BD15F4804F06DFA5F495F48FFF70D
:1018600033FA5F4804F066FAFEF74EFE01003C28AA
:1018700038D05C4804F090FA5B4804F05BFAFEF75D
:10188000A3FE5A4804F056FA544C59492000FFF779
:101890001BFA584804F04EFAFEF796FE564804F03C
:1018A00049FA56492000FFF70FFA4D4804F042FA72
:1018B000FEF72AFE01004B4804F06EFA504804F08F
:1018C00039FAFEF781FEFEF717FF1EE04D4804F0DF
:1018D00031FA4D4804F02EFA4C4800F0C3FFFFF7F0
:1018E00061FEBAE74A4804F025FA474804F054FA82
:1018F000464800F0B7FFFFF755FEBDE7454B002215
:101900001A70454B1B78002B21D1424B1B78002BC2
:10191000F7D0424804F040FA414B1868002801D043
:1019200004F09EF8FEF7F0FD040001003D4804F0CD
:1019300033FA3C2CE2D0FEF747FE0100384C206021
:10194000394804F029FA206804F08AF8D6E73748C5
:1019500004F022FA164804F02FFAC0B203E014484B
:1019600004F02AFAC0B20A280AD00D2808D0FF28AD
:10197000F5D02F4A13882F49C85401331380EEE75E
:101980002B4D2B882B4C0026E65421002A4804F0CE
:1019900003FA2000FEF774FD80225200002120008F
:1019A00004F06AF82E8000221B4B1A70ADE7C04687
:1019B00088130000D4A80010ECA800101027000025
:1019C00010A9001018A900104CA9001030A900108F
:1019D00064A9001090A90010F8A9001018AA00101E
:1019E00034AA001090AA0010B4AA0010E4AA0010B3
:1019F0000CAB00102CAB00105CAB001084AB0010E3
:101A0000A4AB0010ACA90010D4A90010B80B0000C2
:101A100060AA0010B71C0020BC1C0020D4AB001032
:101A2000B411002000AC001014AC001024AC001065
:101A3000B41C0020A01B002034AC001010B58300A3
:101A4000084A944663441C6840226240C024144003
:101A50008022520113431C60C000034B9C4660442B
:101A6000416010BD04C001400040014080000B4BAC
:101A70009C46604400290DD00823002A0CD0042283
:101A80001343026853400C2213408022520110433A
:101A9000036070470023F0E70022F1E704C0014033
:101AA000072303409B00C00899403C308000014B55
:101AB000C150704700400140F8B507000C00160007
:101AC0001D00FFF7EDFFFB089B00ED1807203840D5
:101AD00080008440002E04D080239B011D432C6095
:101AE000F8BDC0239B011D432C60F9E710B5D0233E
:101AF0001B061B68002B03D0024BFFF7DDFF10BD58
:101B0000014BFAE7304101400041014010B51C0093
:101B1000FFF7ECFFD0231B061A689200054BD45048
:101B200005490D2001F000FD01210D2001F0E4FC2C
:101B300010BDC046C00E00203D1B001070B5D02364
:101B40001B061B68002B02D0134D002402E0134D2E
:101B5000FBE701341D2C1DD8E30808339B005A59BC
:101B6000072323409B00DA4013000F2216001E407B
:101B70001A42EED031002000FFF792FFD0231B065F
:101B80001B689B00064A9B58002BE2D031002000C6
:101B90009847DEE770BDC04630410140004101403A
:101BA000C00E002010B501238340D022120693629C
:101BB00093610521FFF742FF10BD0000EFF3108095
:101BC00072B6034B1B68002BFBD0BFF35F8F7047CF
:101BD0002C0100D0BFF35F8F024B00221A6080F30C
:101BE000108870472C0100D0F8B506000C001500D5
:101BF000FFF7E4FFE308F718F15C07222240012316
:101C000093400B4205D1DBB20B433B70FFF7E2FF81
:101C1000F8BD2100280001F0E5FAF0B583B0060018
:101C2000019114001F00FFF7C9FF00E00134BC421E
:101C30000CD8E308F518F35C0721214001228A4003
:101C40001A42F3D1D2B21A432A7001E0012464424D
:101C5000FFF7C0FF002C02DB200003B0F0BD019BAA
:101C6000002BF9D0089801F0BDFA0000034B1B6867
:101C700002201840431E9841C0B2704700C0064081
:101C8000002307E0054A9A189200BFF35F8F0021F6
:101C9000116001331F2BF5D97047C0464000003456
:101CA000054A1078431CDBB21370172B02D91300BE
:101CB00010221A707047C0462004002000B583B07F
:101CC0000100044B00931F2318220348FFF7A5FFD0
:101CD00003B000BD74AC00103014002070B50400D7
:101CE0000D00062001F098FBC000290002F0B0FFB3
:101CF000C60908D00E4B9E4217D87F2318400130EA
:101D00003500460800E001256562A6622C3480207B
:101D10008001044300232360062001F07DFB800046
:101D2000A901891902F094FF70BD0026014DEBE76F
:101D3000FEFF0000FFFF0000002909D00A22064B29
:101D40009C466044434258414000044BC252704795
:101D500080225200F3E7C0460080FCBF9C1B00209D
:101D600070B505000C00062001F056FB002829D0B4
:101D7000164B9D4227D08022D203154B1A60154B7B
:101D80001A60154B9B6811009943FAD10021280075
:101D9000FFF7D2FF21002800FFF7A0FF2C002C3412
:101DA000E96A60224A406E2111408022520122439A
:101DB00011600A4B2B6380239B01234310221A607E
:101DC0000323AB6470BD80221204D6E70080034079
:101DD00000E0004000F0004000C0004001030000AF
:101DE00070B505000C00080000F0CCFD200000F0EC
:101DF000D5FE0849200000F015FEFFF751FF064B05
:101E00009C466044800068602C75A400034BE5503C
:101E100070BDC0462521001040000034E4180020A9
:101E20000A4B1A68EFF3108172B61368002BFCD0CE
:101E3000BFF35F8F054B1B68BFF35F8F00221A60F3
:101E400081F3108840BF002000217047001B002054
:101E500010B5002922D003681B7B99421ED8174B6E
:101E60009C466144090183689C4661440C6849684A
:101E7000002A19D003681B7B9A4215D883680F4843
:101E80008446624412019A181068536802000120C7
:101E90008B4201D80ED00020C0B210BD084B094AB9
:101EA0003B21094801F004F9054B064A3B2106484D
:101EB00001F0FEF8A242EFD8EDE7C046FFFFFF0FAA
:101EC000E0AC0010ACAF0010A4AC001010B50029BD
:101ED0001ED0037B99421BD84B005B18033B046860
:101EE000A4466344002919D0002A1DD0914221D074
:101EF000002A25D0047BA24222D804685000801812
:101F0000033820188170197800291FD11A7010BD6C
:101F1000104B114A6921114801F0CAF8104B114ABF
:101F200070310E4801F0C4F80F4B0E4A71210B4876
:101F300001F0BEF80D4B0B4A7221084801F0B8F8C9
:101F4000044B054A6921054801F0B2F841701A7046
:101F5000DDE7C04614AD001018B0001030AD001021
:101F600080AD0010F4AF00108CAD001098AD0010E3
:101F700070B506000D001400002914D0002A14D0FA
:101F8000806873689847002806D022002900300036
:101F9000FFF79CFF280007E02A0021003000FFF730
:101FA00095FF200000E0100070BD0800FCE7000075
:101FB000F0B583B00500009201930AAB1C780BAB1F
:101FC0001F78002C26D003685A7B944207D1012346
:101FD000002B19D1002C3BD1200003B0F0BD002C08
:101FE0000CD01A7B944209D81A6863001B19033B72
:101FF000D3189B78002BEBD00123E9E73E4B3F4AF7
:1020000069213F4801F054F83E4B3F4A65213F4863
:1020100001F04EF803689C7B002CDBD012D01A7BB9
:1020200094420FD862001219033A19688C46624430
:1020300051789973002900D1D9730023937053709C
:102040001370C7E72C4B2D4A69212D4801F030F859
:10205000002C3AD02B681B7B9C4236D82C4BE318C3
:102060001B01AA6894466344009A1A60019A5A6058
:10207000089A9A60099ADA602E68002C2BD030D02A
:10208000337B9C422DD863001B19033B3268944676
:10209000634400229A705A701A70717B22003000DB
:1020A000FFF766FF7073844200D095E7287D009AA1
:1020B000019B00F0FFFC061E01D0002F17D00C9BE7
:1020C000002B00D188E71E7086E7124B124A3B2195
:1020D0000E4800F0EDFF114B114AA621084800F010
:1020E000E7FF054B054A6921054800F0E1FF286834
:1020F000210000F03FFFE2E714AD001018B000101F
:1021000030AD0010B0AD001024B00010A4AC001031
:10211000FFFFFF0FE0AC0010ACAF0010A0AC001050
:1021200008B00010F0B5DE4657464E464546E0B5CD
:102130008BB00990002308938200B24BD658370029
:1021400032E0B14BB14A3F21B14800F0B1FFB14B91
:10215000B14A3B21B14800F0ABFFB14BB14A8C21F1
:10216000AE4800F0A5FFB04BAE4A9021AB4800F05E
:102170009FFFA84BAD4A4021A84800F099FF2A686C
:102180006B68099800F096FC00239A4698467B6895
:10219000BFF35F8F00221A6086F310884346002B3E
:1021A00051D1002800D126E100F0F8FB02000B1EFF
:1021B000C7DB00200021069007917868EFF31086B6
:1021C00072B601680029FCD0BFF35F8F396888467A
:1021D0004C7B002C32D0BAD0097B8C42B7D89449C2
:1021E00065182D01B9688C46654428686968801AAD
:1021F00099410029C3DC01D10028C0D1002140460B
:1022000000F0AEFEA042A8D12A686B680692079340
:10221000AB689846EB689A464346002BA3D0002C47
:10222000A7D03B681B7B9C42A3D8631EFA68D35C93
:1022300008931B02184338610020A8E700239A4640
:1022400098460020A3E7089B1B022343994651466A
:102250001800C04705000E007A68EFF3108B72B6C5
:10226000136859424B41D9B2002BF9D1BFF35F8FAC
:10227000002E26DB002E52DD3B69002B53D04B4550
:1022800072D100F08BFB02000B1E73DB0100180003
:1022900052197341984202D804D1914202D90122C5
:1022A0005242D317002B6BDB0021049101310391C3
:1022B000029451460191414600913800FFF778FEA3
:1022C00049E03B69002BD5D04B451CD1069A079BB2
:1022D00010001900521BB341994202D804D1904218
:1022E00002D901225242D317002B12DB00210491A4
:1022F0000131039102945146019141460091380009
:10230000FFF756FE27E04B4B464A9F21434800F01B
:10231000CFFE3D4B3D4A3F213D4800F0C9FE002E17
:1023200001D1002DA8D13A68002C45D0537B9C42A6
:102330002CD1012100293FD1D37B002B42D1D47372
:10234000002C52D03B681B7B9C424ED8FA68013C63
:10235000135D0133135500233B617A68BFF35F8F30
:1023600013608BF310881FE7324B2E4AA2212B48B3
:1023700000F09EFE244B254A3F21254800F098FEA0
:10238000214B224A3F21224800F092FE002C0DD022
:10239000137B9C420AD863001B19033B10688446D8
:1023A00063449B78002BC5D00121C3E7224B234A0D
:1023B0006921234800F07CFE224B234AF721204864
:1023C00000F076FE002B0AD0117B8B4207D8590013
:1023D000CB18033B11688C4663445C70AFE7164B27
:1023E000164A6921164800F063FE0A4B0F4A402145
:1023F0000A4800F05DFE0BB0F0BCBB46B246A946F1
:10240000A046F0BDE4180020D8AD001078AF001051
:10241000F4AD0010E0AC0010ACAF0010A4AC0010A4
:1024200040AE001090AF001058AE0010D0AF0010BA
:10243000FFFFFF0F64AE001014AD001018B00010C5
:1024400030AD0010A0AE0010E4AF001010B50A4B84
:102450005B68002B04D00A21084800F0BFFB10BDC8
:10246000054C2300064A1021206800F099FC032146
:102470002000FFF7B5FCEEE724040020001B00203D
:10248000511E001010B5064B5B68002B01D00448AC
:1024900010BD044B044A5C21044800F009FEC0460C
:1024A00024040020C4AE0010B8AF0010A4AC00108B
:1024B000F0B5DE4657464E464546E0B58BB0804601
:1024C00016001F00149B9A46159B994616AB1B7865
:1024D0009B461F2302AA9446634400221A7032E0EE
:1024E000002809D042461268127B904204D8421E4E
:1024F0004146C9688A5C48E0434B444A402144480D
:1025000000F0D6FD0798002B75D05B46002B72D0EB
:102510004946D04704000D0003000B4300D171E091
:10252000002946DB00F03AFA06000F1E55DB36198B
:102530006F41B94202D804D1B04202D90126764295
:10254000F717002F4FDB43465A68EFF3108472B63B
:10255000136859424B41D9B20791002BF8D1BFF310
:102560005F8F1F3302AA94466344049300230393AE
:1025700002934B4601935346009332003B00404682
:10258000FFF716FD031EABD1020041464968BFF3B9
:102590005F8F00250D6084F31088002B29D01F2346
:1025A00002A98C4663441B78002BABD11202104366
:1025B000A9E732003B00361BAF41BB4202D804D131
:1025C000B24202D901267642F717002FBBDA114B2F
:1025D000114A3F21114800F06BFD0E4B0E4A3F217E
:1025E0000E4800F065FD0B4B0B4A3F210B4800F0F5
:1025F0005FFD012040420BB0F0BCBB46B246A9468D
:10260000A046F0BD0798F6E7E0AC0010D0AF001090
:10261000A4AC0010D8AD001078AF0010F4AD0010DD
:10262000F8B504004268EFF3108572B6136858429B
:102630004341D8B2002BF9D1BFF35F8FCBB22268F0
:10264000567BB3421BD10120002848D02069884224
:102650002BD0090AC9B2002B2ED02068007B834200
:102660002AD8581EE668305C88422BD00020636868
:10267000BFF35F8F00221A6085F31088F8BD002B2E
:102680000DD0167BB3420AD85E00F618033E1768D9
:10269000BC466644B678002ED6D00120D4E7134B52
:1026A000134A6921134800F003FD8521124B134A98
:1026B0004900134800F0FCFC124B134A402110481B
:1026C00000F0F6FC1900100000F054FC0028CED1F8
:1026D00012210E4B094AFF31094800F0E9FC236939
:1026E0008B42C4D100232361C1E7C04614AD001062
:1026F00018B0001030AD0010E8AE001060AF001050
:10270000A4AC0010E0AC0010D0AF00100CAF001073
:10271000F0B587B006000F00FDF7A5FD00281FD11A
:1027200006246442E517A4197D41BD4202D803D1B5
:10273000B44201D900240025002D14DB0494059532
:1027400000F02CF902000B1E13DBA41A9D41002D92
:1027500017DC14D03000390000F02CF907B0F0BDC0
:10276000234800F03FFD234B234A3F21234800F03C
:102770009FFC204B204A3F21204800F099FC002C70
:10278000E8D0FFF77FFE0023029301931C4B0093D8
:10279000049A059BFFF78CFE002818DADAE700237D
:1027A00000E00023002BD5D1164B1A68EFF31081FF
:1027B00072B61368002BFCD0BFF35F8F114B1B6800
:1027C000BFF35F8F00221A6081F3108820BF049945
:1027D000059A0D4B5B6A9A42E3D80B48806A88429F
:1027E00003D29A42DBD00123DCE70123DAE7C046BB
:1027F00010AF0010D8AD001078AF0010F4AD00108D
:10280000211E0010001B002000400540F8B5040008
:102810000D0000F0C3F802000B1E10DB20002900A1
:10282000801859418B4202D804D1824202D901203A
:102830004042C117002908DBFFF76AFFF8BD064BCD
:10284000064A3F21064800F033FC034B034A3F2170
:10285000034800F02DFCC046D8AD001078AF001042
:10286000F4AD001010B5FA2292000023002103F00D
:1028700033F8FFF7CBFF10BD70B584B006000C0035
:10288000FFF700FE002302930193194B00933200DF
:102890002300FFF70DFE051E11DD20BFFFF7F2FD3F
:1028A0002900FFF7BDFE134B5B6A9C421BD8114AFF
:1028B000926AB2421AD29C4213D0012014E00D4B0E
:1028C0005B6A9C4209D80B4A926AB24207D29C4288
:1028D00001D0012008E0002006E0002004E00120F3
:1028E00002E0002000E0002004B070BD0120FBE702
:1028F000211E00100040054070B5EFF305833F2016
:1029000018401038EFF3108C72B6194B1B68002B6F
:10291000FBD0BFF35F8F012319008140154A51633B
:10292000154A12781400C440234214D0114B5C6A3B
:102930008300124D5B599C4206D38300104C1B59F7
:102940008A430D490A7007E00A4A031D9B00995803
:102950009950002300E00023BFF35F8F044A002159
:1029600011608CF31088002B00D0984770BDC046D2
:10297000280100D000400540C01C00200C1B002096
:102980001C13002010B50100024A0348FFF72CF980
:1029900010BDC0463CB00010BA1C0020044B5B6A5E
:1029A000034A906A1900536A9942F9D17047C046A8
:1029B00000400540084B5B6A01E0074B5B6A8B42B5
:1029C000FBD301E0044B5B6A8B4203D1024B9B6A51
:1029D0008342F7D37047C0460040054070B50400FD
:1029E0000D00FFF7DBFF02000B002000290080181C
:1029F00059418B4202D804D1824202D9012040427F
:102A0000C117002902DBFFF7D5FF70BD024B034A57
:102A10003F21034800F04CFBD8AD0010E8B0001097
:102A2000F4AD001070B504000D00EFF3108672B61F
:102A30001B4B1B68002BFBD0BFF35F8F002D1CD0FE
:102A4000200000F069FD174B83420BD019002000D5
:102A500000F06AFD0121200000F04EFD0123A3409B
:102A6000114A1360A400114BE550BFF35F8F0C4B6C
:102A700000221A6086F3108870BDA2000B4B002163
:102A8000D1500122A2400A490B7893430B700549AB
:102A9000200000F073FD0021200000F02DFDE4E790
:102AA000280100D0F9280010386005401C130020D0
:102AB000C01C0020F0B5DE4600B584B0040015004F
:102AC00001921E000293FFF769FF03958E4202D820
:102AD0004ED185424CD9EFF3108B72B6274B1B6851
:102AE000002BFBD0BFF35F8F254A17780125A54047
:102AF000EBB23B431370234B5D63221D920001999F
:102B0000D150A2002049029850501B6A2B4212D18A
:102B10001C4B1B6C2B4208D00020BFF35F8F174B60
:102B200000221A608BF3108823E0184B184AC12149
:102B3000184800F0BDFAFFF731FF8E4214D802D1D9
:102B4000039B834210D80E4B1B78BB420ED00D4B1B
:102B50001D625D631F2004400123A3400E4A1360E1
:102B6000074B1F701E38D8E70020D6E70120D4E7B6
:102B7000012004B080BCBB46F0BDC046280100D097
:102B8000C01C0020004005400C1B002060B000105D
:102B9000CCB0001084B0001080E200E0EFF3108CA5
:102BA00072B60B4B1B68002BFBD0BFF35F8F01236A
:102BB0008340084A136208490A789A430A70BFF3AF
:102BC0005F8F034B00221A608CF310887047C04659
:102BD000280100D000400540C01C0020024B9C464C
:102BE00061448900016070474000003410B5040062
:102BF000FFF756F801002000FFF7F0FFFF232371D5
:102C0000BFF35F8F10BD10B50400FFF749F8010056
:102C10002000FFF7E3FFFF23237100236371BFF35D
:102C20005F8F10BD034B9C46614489000160BFF378
:102C30005F8F70474000003410B504000120FFF79B
:102C40003DF801002000FFF7EDFF10BD10B5002991
:102C50001ED0037B99421BD84B005B18033B0468D2
:102C6000A4466344002919D0002A1DD0914221D0E6
:102C7000002A25D0047BA24222D804685000801884
:102C8000033820188170197800291FD11A7010BDDF
:102C9000104B114A6921114800F00AFA104B114AF1
:102CA00070310E4800F004FA0F4B0E4A71210B48A8
:102CB00000F0FEF90D4B0B4A7221084800F0F8F9BC
:102CC000044B054A6921054800F0F2F941701A7079
:102CD000DDE7C04614AD0010CCB2001030AD0010DE
:102CE00080AD0010B8B200108CAD001098AD00108F
:102CF00070B506000D001400002914D0002A14D06D
:102D0000806873689847002806D0220029003000A8
:102D1000FFF79CFF280007E02A0021003000FFF7A2
:102D200095FF200000E0100070BD0800FCE70000E7
:102D300010B50023437301338373037BC3730123F3
:102D4000027B9A4214D9002B0CD0027B934209D803
:102D50005A00D218033A01688C4662440133DBB250
:102D60005370EDE70B4B0C4A69210C4800F0A0F9B9
:102D7000002A09D0924207D8016853009A18033AF2
:102D80008A180023537010BD024B034A692103487F
:102D900000F08EF914AD0010CCB2001030AD001070
:102DA00010B5017342608360FFF7C2FF10BD0000E1
:102DB00070B50400081E00D170BD002934D0237BFB
:102DC000994231D84B005B18033B22689446634418
:102DD0005A78002AF0D02DD0237B9A422AD853006B
:102DE0009B18033B21688C4663445D780021597031
:102DF000002825D0237B984222D843001B18033B90
:102E000021688C4663440021597001002000FFF7BF
:102E10006FFF060029002000FFF7CAFF0200310003
:102E20002000FFF765FFC7E7084B094A69210948F9
:102E300000F03EF9054B064A6921064800F038F9D2
:102E4000024B034A6921034800F032F914AD001027
:102E5000CCB2001030AD001070B505000C001600AB
:102E6000002928D02DD0037B99422AD84B005B182B
:102E7000033B0268944663445A78002A27D19A7823
:102E8000002A2AD11978FFF793FF0300002E03D000
:102E9000EA7B002A27D1EC73002B37D1002C49D0D4
:102EA0002B7B9C4246D82B6861000C19033C1C19F3
:102EB0000023637070BD224B224A3821224800F063
:102EC000F7F8224B224A6921224800F0F1F8224B00
:102ED0001C4A3A211C4800F0EBF8204B194A3B21D0
:102EE000194800F0E5F8002A0AD0297B8A4207D861
:102EF00051008A18033A29688C4662445470CAE724
:102F0000124B134A6921134800F0D2F8002B0BD062
:102F10002A7B934208D843001B18033B2A68944637
:102F2000634400229A70B9E7084B094A69210948AD
:102F300000F0BEF8054B064A6921064800F0B8F8D3
:102F4000D0B10010A4B20010D8B1001014AD001020
:102F5000CCB2001030AD001018B2001040B200101A
:102F600070B504000A00457B2900FFF775FF607308
:102F7000280070BD70B50400002967D0437B8B42E8
:102F80000ED0002911D0037B99420ED84B005B185C
:102F9000033B0268D0188378002B0CD1002056E048
:102FA0000121FFF7DDFF012051E0294B294A69216A
:102FB000294800F07DF8002B20D0227B93421DD8B9
:102FC0005A00D318033B2268D2182568EB5C8B4269
:102FD0001AD0002B1BD0227B934218D85A00D3184A
:102FE000033B2268D21853788B4216D0002BF0D1C5
:102FF0001A4B1B4A67211B4800F05AF8144B154A1C
:103000006921154800F054F84378137007E0104B1D
:10301000104A6921104800F04BF8437853700023A0
:103020008370437001222000FFF716FF0200617BCE
:10303000814205D02000FFF75BFE6073012006E0AF
:10304000094B074A6D21074800F032F8002070BD97
:1030500014AD0010CCB2001030AD001064B20010FE
:103060008CB20010D8B100106CB2001000BEFDE7A9
:1030700003000A4A1268002A08D0084A1068C318D8
:10308000074A9A4206D3054A13607047034A054926
:103090001160F2E701204042F7E7C046CC1400205F
:1030A00000000420C41C002010B5FFF7DFFF000063
:1030B00010B582B00C001900002A0CD0084B002A71
:1030C0000BD00192009323000200064802F064FE38
:1030D0000120FFF7CBFF044BF1E7034AF1E7C046BD
:1030E000D8B20010E8B2001080A1001070B52B4BD0
:1030F0002B4A1A602B4B2C4A1A602C4B9A682A4B8D
:103100009343FAD12A4C01E008CC9847294B9C42C2
:10311000FAD300F001F9234B274A1A60234B9B682E
:10312000DB43DB01FAD1254B40229A675A671A67C5
:10313000DA66234C09E0234B234A83212348FFF717
:10314000B7FF2000FFF752FD0834214B9C4209D203
:103150002368002BF5D0012BEDD12000FFF753FDA4
:103160000834F2E71B4CA1681B4DC022280002F076
:1031700089FCA560FDF777F8002800D000BEFEF7B7
:103180007FFD00F049FBFFF761F9144C01E008CC2A
:103190009847134B9C42FAD370BDC04600E00040F4
:1031A000BFCDFBFE00F00040FE7F3C0000C00040B1
:1031B000480D0020580D0020FFFFFF0100F00140E6
:1031C000400D002018B3001090B3001038B3001069
:1031D000480D002000ED00E000000020580D002008
:1031E000600D00200FB400B583B0084802F0A2FDC6
:1031F000049B002B07D005A90191180002F0AAFD3D
:10320000034802F097FD0120FFF730FF80B3001064
:1032100008A70010F8B5DE4657464E464546E0B5CD
:1032200005000F0092460A9A93424ED31A0E914619
:103230001E020A9A00233000494601F04BFD8046E9
:103240006C006419A4002F4B9C466444636883425D
:1032500000D260602B1FDBB29B46012B3BD9C02301
:103260009B012343802212011A60AB00264A995821
:10327000002905D0506901F0EBFC01300138FDD187
:1032800053465A0123685A40E0231A4080235B01C9
:1032900023431A605A46012A28D980239B012343DD
:1032A000802212011A6043466360424600233000C8
:1032B000494601F00FFDAD00134B58510120F0BC01
:1032C000BB46B246A946A046F8BD104B104A2D2178
:1032D0001048FFF7EDFE012FC1D1C0239B0123430E
:1032E00003221A60A368DB07FCD5C9E7216879408F
:1032F00003220A401A60A2680123BB401342FAD09D
:10330000CBE7C0460080004034140020A0B300107A
:10331000FCB30010B4B3001030B583B00C2000F043
:1033200015FBFEF7A3FC00280DD0002304E0990054
:103330002D4A2E4888500133092BF8D92A4B2C4AA4
:103340005A6203B030BD2B4B00229A6700F070FB2D
:10335000294B01221A60274B5B6C012BFBD1274BB9
:1033600003221A60234B9B6B012BFBD10224009498
:103370000533234A0121234800F05CFA0094052319
:10338000214A0121214800F055FA214B00930022E7
:1033900002210420FFF73EFF1E4D00952B00002266
:1033A00001210520FFF736FF104C00942300002276
:1033B00000210720FFF72EFF0094230000220021A8
:1033C0000820FFF727FF0A4B00932300002200216B
:1033D0000920FFF71FFF00952B0000220021062087
:1033E000FFF718FFADE7C04634140020006CDC0284
:1033F0001BB70000008000403CB0004030B00040EF
:10340000002F68590080024000389C1C00C0024018
:10341000001BB700405973078000014BC05870472C
:1034200034140020074B9B68103080001950BFF304
:103430005F8FBFF35F8F044B0021196082F3108808
:103440007047C04600ED00E0240100D010B5091A15
:1034500004394808090B05D14005400D044B1843B9
:1034600080B210BD034B044A8B210448FFF720FEB5
:1034700000E0FFFF0CB400101CB600101CB40010DC
:1034800010B5091A04394C08090B08D14905490D32
:10349000064A11430180064B2343438010BD054B70
:1034A000054A93210548FFF703FEC04600F0FFFFE1
:1034B00000F8FFFF0CB40010F0B500101CB40010B1
:1034C00001238340034A10681840431E9841C0B24C
:1034D0007047C04600E100E0002904D0034B1860AB
:1034E000034B18607047034B1860FBE780E200E075
:1034F00000E100E080E100E010B501238340180006
:10350000FFF7EAFF10BD000001238340014A13606A
:103510007047C04600E200E0024B9B68103080001C
:10352000C058704700ED00E070B504000D00EFF3E7
:10353000108672B60C4B1B68002BFBD0BFF35F8F5D
:103540002000FFF7E9FF094B984201D0A84205D1BE
:10355000320029002000FFF765FF70BD044B054ACB
:103560006E210548FFF7A4FD240100D0CD01001015
:1035700060B4001038B600101CB40010F0B5CE4690
:10358000474680B583B006000D00EFF3108872B691
:10359000574B1B68002BFBD0BFF35F8F554B9A68CE
:1035A00034001034A300D758534B9F4207D0AF428A
:1035B00000D19BE00197514BFB1A2F2B09D94246B2
:1035C00039003000FFF72EFF03B0C0BCB946B0464B
:1035D000F0BD3000FFF774FF814600213000FFF797
:1035E0008BFFBFF35F8FFCF73EFE002801D08442C3
:1035F00019D10123019C9C43414923003F4A9B1A56
:103600005B415943090D49B20022A368AB4212D075
:103610000622A256002A0DDB53009B189B002200B5
:10362000364CE418F1E71E21364B374AFF31374854
:10363000FFF73EFD2200AB4251D106256557002D14
:1036400039DB6B005B199A002C4B9B189A68A260BF
:10365000DA79E27106229A56A2719B795BB2002B4D
:1036600010DABD200002A0806B005B199B00234A8A
:10367000D318274A11789971157049463000FFF721
:103680003BFF9CE7201D6B005B199B001B4A9B18AE
:103690001A1D9B88D90A1C2907D15B055B150233CB
:1036A00059005118FFF7D2FEDDE71A4B1A4A99214B
:1036B0001648FFF7FDFC00280CD1002A08D0FF2394
:1036C0009371164B9380124B1A78A2711970D4E73C
:1036D000094FF8E7201D1249FFF7D2FECDE7A921D7
:1036E000104B094A49000948FFF7E2FC024F66E720
:1036F000240100D000ED00E0CD0100104C040020BA
:10370000AAAA000074B5001008B600101CB400107E
:10371000BB1C00205CB5001028B6001000BDFFFFE8
:103720008604002098B5001070B5040001260643F9
:103730002D4BF31A2F2B28D8FCF795FD00282BD002
:10374000EFF3108C72B6294B1B68002BFBD0BFF334
:103750005F8F274D22002449521A524155432D0DA7
:103760006DB2244B9B6880001B58B3421BD00022D3
:10377000032A32D853009B189B001B49CB189B7916
:103780005BB2AB421FD00132F2E778211A4B1B4AE1
:10379000FF311B48FFF78CFCBD211A4B174A49002B
:1037A0001748FFF785FC134B9B68174A1A50174BB5
:1037B0001A78A2711D70BFF35F8F0C4B00221A6044
:1037C0008CF3108870BD08005300991889004118C7
:1037D000FF268E710E4A8A80E9E78C210D4B074A3D
:1037E000FF310748FFF764FC4C040020240100D09F
:1037F000AAAA000000ED00E0A0B50010D4B50010AA
:103800001CB40010C8B50010CD010010BB1C002076
:1038100000BDFFFF64B200100022044B02E0044927
:1038200002C30132072AFAD97047C04600E400E01B
:1038300080808080F0B5CE4600B504000E00914631
:103840001F000C2001F004FA050043011B1A990126
:10385000C91AC90009188901484601F0F9F902009E
:10386000103A98235B009A4233D87B1E062B36D839
:10387000069B013B062B32D8069B9F4235D34B4615
:103880001A09AA4237D33F04069B1D032F4323681E
:10389000002B36DB234B9C4241D080225201224B2D
:1038A0001A60224B1A60224B9B6811009943FAD18F
:1038B0002660A060231DC02292011A4321231360B9
:1038C0002368002BFCDAE7600823136080BCB9464C
:1038D000F0BD184B184A16211848FFF7E9FB184BA2
:1038E000154A19211548FFF7E3FB164B124A1F2111
:1038F0001248FFF7DDFB144B0F4A22210F48FFF758
:10390000D7FB22683F231340B342C3D1A3681B05F2
:103910001B0D8342BED1E368002FBBD1D6E78022C6
:103920009201BCE700C0024000E0004000F000400F
:1039300000C0004054B6001034B7001070B600103C
:10394000B4B6001000B7001018B7001080239B0019
:103950000343014AD362704700800540024B1A6856
:10396000024B5A607047C046DC18002000800540BA
:1039700010B50200164B8020C0051860154B164884
:10398000186000290AD0154BE021C9041960002AEB
:1039900009D1124B802212061A6010BD0C4BE02197
:1039A000C9041960F3E753019B1A980080180001BD
:1039B0000B4B186080235B04984202D3084B094AE2
:1039C0001A60FFF7CBFF054B8022D2051A60E4E7AF
:1039D00000B0054008200140FCFF010000A00540A8
:1039E000DC180020FFFFFF0010B5030010000C4A98
:1039F0008024E4051460002B0DD001221343094AF2
:103A0000094CD461094C5C401462516293620021FC
:103A1000FFF7AEFF10BD034B0022DA61F7E7C046A7
:103A200000B0054000800540D3C007B02D3FF84FDF
:103A3000064BAA2212011A602F22DA60044B054AB3
:103A40001A60024B5B68002BFBDA704700400240B3
:103A50000060024000B0FA00704710B5002802D0A4
:103A60000B684968984710BD0100002007E08300FB
:103A70001B185B00501C08601078C01830380A68AA
:103A80001378303BDBB2092BF1D97047F0B5DE4635
:103A900057464E464546E0B583B093461F000C9B03
:103AA0009A460D9C0E9B99460F9B9B0703D0B846E8
:103AB0000F00060022E00192A34688464E46B94612
:103AC0000700B44207D2551C4B4641462020B84758
:103AD00001342A00F5E73D004F465C46019B9B46BA
:103AE000B1464646B84637002E0007E0013C551C5B
:103AF0005346185D43463900B0472A00002CF5D1E3
:103B000035003E0047460F9B9B0707D4100003B0CB
:103B1000F0BCBB46B246A946A046F0BDB0464E46F4
:103B2000B9462F005D46531BB342EFD2541C4B469F
:103B300041462020B8472200F5E7F0B5CE4647467B
:103B400080B585B0944698460C9D0D9C0EAB1B78B5
:103B50009946109A119B129EB7071CD4002B0CD0CB
:103B6000F7070AD54F46002F02D10C37374204D051
:103B7000013B02E030272F550134944201D21F2C23
:103B8000F8D9F70707D59C4205D21F2C03D8302758
:103B90002F550134F5E7F70615D5770505D4002C28
:103BA00003D0944224D09C4222D00F9A102A2BD0CA
:103BB0000F9A102A30D00F9A022A35D01F2C02D823
:103BC00030222A5501341F2C05D84A46002A31D00C
:103BD0002D222A5501340396029301940095434601
:103BE0006246FFF753FF05B0C0BCB946B046F0BD12
:103BF000621E012C06D00F9F102F01D01400D4E7B5
:103C0000023CD2E71400D0E7B206D1D41F2CCFD8A3
:103C100078222A550134D1E7B206CCD51F2CCAD858
:103C200058222A550134C9E71F2CC7D860322A55BB
:103C30000134C3E7720703D52B222A550134CAE7A2
:103C40003207C8D520222A550134C4E7F0B5DE4634
:103C500057464E464546E0B593B081468A4608929F
:103C600009931CAB10CB1B789B461E9D219B98464D
:103C7000002C03D1102342469A4390468023DB0058
:103C800046461E4042461A4212D0002C22D0002640
:103C90000EE03033D9B2771C0AAB995529002000C9
:103CA00000F0D6FFAC4216D31F2F14D83E000400FC
:103CB0002900200000F0CCFFCBB2092BE9D9424605
:103CC000920605D54121C918C9B20A39C9B2E2E73D
:103CD0006121F8E7270043460693209B05931F9B2D
:103CE000049303955B46029301970AAB0093099BEB
:103CF000089A51464846FFF720FF13B0F0BCBB4678
:103D0000B246A946A046F0BDF0B5DE4657464E463F
:103D10004546E0B595B0089009910A920B931E9E16
:103D20001F9C20AB1B789B46229B9946239D269B7C
:103D30009A463300234303D1103352469A439246A6
:103D40008023DB0057461F4052461A4219D03300E9
:103D500023432DD0002714E03033DAB27B1C984681
:103D60000CABDA554A462B003000210000F0B2FFC0
:103D7000A5421FD819D043461F2B1BD84746060023
:103D80000C004A462B003000210000F0A3FFD3B204
:103D9000092BE1D95246920605D54122D218D2B25A
:103DA0000A3AD2B2DAE76122F8E7B145E3D901E095
:103DB0000023984653460693259B0593249B049322
:103DC0004B4603935B460293434601930CAB00932F
:103DD0000B9B0A9A09990898FFF7AFFE15B0F0BC43
:103DE000BB46B246A946A046F0BD0000F0B5DE468F
:103DF00057464E464546E0B591B083468A460C92FA
:103E000098461A9C08941B9D099522002B002000BF
:103E1000290001F0EEF9002800D0E5E0012252422D
:103E2000D74B2000290001F0DFF9002800D0DBE0AB
:103E300001225242D34B2000290001F0BFF9002893
:103E400000D0D1E000220023089E3000099D290007
:103E500001F0B4F9002800D0DDE008980999069037
:103E600007918023DB001E9A1A400D921E9A1A4277
:103E700001D106231C930698079904000D000A003F
:103E80000600024300D1D1E0080D4005400DBE4CB4
:103E9000A44660440A03120BBC4B13431F0001F0FD
:103EA000BBF9BB4ABB4B01F046F9BB4ABB4B01F027
:103EB0001BF904000D000022B94B3000390001F05D
:103EC0000AF9B84AB84B01F036F902000B0020009D
:103ED000290001F009F901F0B7F9814601F09CF9D8
:103EE00004000D00B14AB24B01F025F90022B14B9C
:103EF00001F0FAF801F0A8F90600AF4AAF4B200034
:103F0000290001F018F904000D00300001F084F9D7
:103F1000AB4AAC4B01F00FF902000B002000290066
:103F200001F0D9F804000D0002000B0001F003F9C4
:103F30000A900B91A44BF31800261F0522002B00BA
:103F40002000290001F0D0F80E900F9122002B00E4
:103F500000208021C90501F0BEF804000D000022F8
:103F60009A4B0A980B9901F0C8F80022984B01F07F
:103F7000BBF802000B000A980B9901F0BEF8002272
:103F8000944B01F0B1F802000B000A980B9901F074
:103F9000B4F802000B002000290001F0A5F802008F
:103FA0000B000E980F9901F0A8F80022774B01F052
:103FB0009BF832003B0001F0BEF806000F00040041
:103FC0000D00069A079B01F00FF9002830D001235D
:103FD0005B429C46E14400227D4B3000390001F0F9
:103FE0008CF804000D0023E01E9B04931D9B03939B
:103FF0001C9B0293089A099B0092019343460C9ADA
:104000005146584600F0FCF811B0F0BCBB46B24631
:10401000A946A046F0BD0023002406930794069607
:1040200080231B069C46654407951AE700239946A2
:104030004B466333C62B1ED804261E9B1B0526D574
:104040002B0023430FD0644A644B0698079901F074
:10405000C3F8002879D00022614B0698079901F037
:10406000ADF8002871D01C9B4B4506DD4A46981AD6
:10407000431E1C9303E00526DFE700231C938023E7
:10408000DB001E9A1A431E920026002399461D9BB0
:104090009E4264D29F1B02231E9A1A400A921E9AC5
:1040A000134202D0002E00D000274B46002B07D031
:1040B00022002B000698079901F01FF8069007913F
:1040C000002200230898099901F078F8002848D1C7
:1040D000444B1E9A1340049303971C9B0293069B28
:1040E000079C0093019443460C9A5146584600F0B1
:1040F00087F8002E00D187E71E9B9B063DD54525FE
:10410000441C4346020051462800D8474B46DA1764
:104110009B18534005220592013E0496002203920B
:104120000A3202924A46D00F019000934346220081
:1041300051465846FFF78AFD0A9B002B00D163E7E2
:1041400002005F460C9E1D9D54E01C9B002B9ED0E0
:104150000D9B002B9BD01C9B013B1C9397E70027DA
:1041600099E7069C079D22002900802000068446CE
:1041700061440B0006920793AAE76525C0E7C04695
:10418000FFFFEF7FFFFFEFFF01FCFFFF0000F03FAD
:10419000FB799F501344D33FB3C8608B288AC63F36
:1041A0000000F83F61436F63A787D23F71A379098D
:1041B0004F930A400000E03F1655B5BBB16B02407B
:1041C000EF39FAFE422EE63FFF03000000002C40CC
:1041D00000002440000018402D431CEBE2361A3F3B
:1041E00080842E41FFF7FFFF541C43465146202098
:1041F000B8472200931BAB42F6D3100004E7C04639
:10420000F0B5DE4657464E464546E0B595B00690B9
:10421000079193469946209F1E9A1F9B10001900F4
:1042200000F0E7FF002831D101225242BF4B1E9817
:104230001F9900F0C3FF002837D101225242BC4B26
:104240001E981F9900F0D0FF00283DD10022B94BE5
:104250001E981F9900F0C8FF002850D10022B64BCD
:104260001E981F9900F0AAFF002848D100220023C1
:104270001E981F9900F0A2FF002850D100239846F5
:10428000229B5B0500D4B6E0002458E0229B0393F8
:10429000219B029303230193A84B00934B465A465C
:1042A00007990698FFF7F2FB0EE1229B0393219BEF
:1042B000029304230193A24B00934B465A4607995D
:1042C0000698FFF7E3FBFFE00423229A1A402299A5
:1042D0000B4210D09B4B002A0FD00422229903914D
:1042E00021990291019200934B465A4607990698EC
:1042F000FFF7CCFBE8E0944BEDE70322EEE7229BCF
:104300000493219B039302971E9B1F9C009301948F
:104310004B465A4607990698FFF768FDD4E01E9A67
:104320001F9B0020002100F0D6FE1E901F9101234C
:104330009846A5E70CAB30221A55013F01341F2CDB
:1043400001D8092FF6D81E981F9900F07DFF0500AF
:1043500000F062FF02000B001E981F9900F0BBFEE8
:10436000FA007A4B9B181A685B680A920B9300F06C
:10437000E2FE0890099100F08BFF060000F048FF74
:1043800002000B000898099900F0A5FE0890099119
:1043900000226F4B00F028FF00282ED0013630009D
:1043A00000F036FF02000B000A980B9900F00CFF9A
:1043B000002801D001350026002F2CD1280000F064
:1043C0002BFF02000B001E981F9900F084FE0600D0
:1043D0000F0000225E4B00F0F1FE002846D10022C3
:1043E0005B4B3000390000F0FFFE00283ED1EB07A8
:1043F0003CD501353AE0062746E70022544B0898A1
:10440000099900F0DBFE0028D6D1002E01D0F30779
:10441000D2D50136D0E7AA461F2C11D8013F0A2178
:10442000300000F015FC651C30310CAB19550A2129
:10443000300000F00DFC092E0ED906002C00EBE731
:1044400055461F2C0CD87B1E002F09D00CAA3021FA
:1044500011551F000134F4E72B0055461C00F0E70E
:104460001F2C03D80CAB2E221A5501341F2C10D848
:104470000A21280000F0C4FB661C30310CAB195532
:104480000A21280000F0BCFB051E01D03400EDE736
:1044900034000323229A1340012B1CD01F2C06D872
:1044A0004346002B32D00CAB2D221A550134229BEF
:1044B0000393219B029301940CAB00934B465A4605
:1044C00007990698FFF7E2FA15B0F0BCBB46B24672
:1044D000A946A046F0BD219B002B13D04346002BDC
:1044E00002D10C3313420FD0219B013B21931900C1
:1044F00003E00CAB30221A5501348C42CED21F2C73
:10450000F7D9CBE72199F8E72199F6E7229B5B07DA
:1045100004D50CAB2B221A550134C8E7229B1B078C
:10452000C5D50CAB20221A550134C0E7FFFFEFFFC1
:10453000FFFFEF7F65CDCD4165CDCDC14CB70010FC
:1045400050B7001044B7001040B7001038B9001041
:104550000000E03FF0B5DE4657464E464546E0B522
:1045600093B082468B4690461193002900D1EBE22E
:1045700000275546119B1878002800D1E7E225282E
:1045800009D07C1C43463A005946A847119B013389
:1045900011932700EEE7013311930024119A11784B
:1045A0000B00203BD8B2102803D88300D048C35852
:1045B0009F460B00303BDBB2092B2CD92A292FD088
:1045C00000230A93119B1A782E2A39D000239A4689
:1045D000119A1378683BD9B2122976D88B00C54955
:1045E000CB589F4601231C4301321192D6E7022388
:1045F0001C4301321192D1E704231C430132119272
:10460000CCE708231C4301321192C7E710231C4357
:1046100001321192C2E711A8FFF726FA0A90D1E7FA
:104620001C9B1A1D1C921868002804DB0A90119B21
:1046300001331193C6E702231C4343420A93F6E772
:104640008022D20014435A1C11925A781300303B36
:10465000DBB2092B04D92A2A07D000239A46B7E7F0
:1046600011A8FFF701FA8246B2E71C9B1A1D1C92A3
:104670001868002804DB8246119B01331193A7E7D9
:104680000020F8E780235B002343511C11915278EE
:104690006C2A01D01C0018E0C0239B001C43013190
:1046A000119112E080232343511C11915278682A02
:1046B00001D01C0009E0C0231C430131119104E02A
:1046C00080235B001C4301321192119B1878030078
:1046D000253BDAB2532A00D92CE29300864AD358FC
:1046E0009F4680239B001C4301321192EDE78023FB
:1046F0005B001C4301321192E7E7782809D0582863
:1047000038D06F2838D0622838D010239C430A262E
:1047100000E01026582833D0692803D0642801D03F
:104720000C229443630501D50122944369282AD0C1
:10473000642828D0A30500D59FE0E30500D5B8E0A4
:10474000630600D4CAE01C9A111D1C911168FF2257
:104750000A4005940A9B0493534603930296002350
:104760000193009243463A0059462800FFF76EFA3B
:10477000070027E01026CDE70826CBE70226C9E789
:1047800020221443C8E7A30520D4E30550D46306D0
:1047900066D51C9A111D1C911168FF220A40D3177F
:1047A000D118594005940A9B0493534603930296EB
:1047B000D20F0192009143463A0059462800FFF774
:1047C00045FA0700119B01331193D3E61C9BDA1DB8
:1047D00007218A43110008311C91116853689C46D7
:1047E000DB170C930D930C9A0D9B100048400E9014
:1047F000624653400F930E980F990C9A0D9B801AA6
:1048000099410E900F9108940A9B07935346069383
:104810000496002305936346DA0F029200900191FB
:1048200043463A0059462800FFF76EFA0700C9E7E9
:104830001C9A111D1C911268D317D1185940059468
:104840000A9B0493534603930296D20F0192009160
:1048500043463A0059462800FFF7F8F90700B1E748
:10486000230605D51C9A111D1C910023D25E96E7E4
:104870001C9A111D1C91126891E71C9BDA1D0721DF
:104880008A43110008311C9108940A9B07935346F0
:1048900006930496002305930293136854680093CB
:1048A000019443463A0059462800FFF72DFA0700C5
:1048B00088E71C9A111D1C9105940A9B049353468A
:1048C00003930296002301931368009343463A0032
:1048D00059462800FFF7BAF9070073E723060DD5FC
:1048E0001C9A111D1C9112681204120C31E7C0466B
:1048F00058B700109CB70010E8B700101C9A111DA3
:104900001C91126825E746281AD01C9B0733072202
:1049100093431A0008321C9204940A9A0392524656
:1049200002925C681B680093019443463A00594622
:104930002800FFF765FC0700119B0133119319E66E
:1049400020231C43E1E7672801D0472802D18023B8
:104950001B011C43452801D0472801D120231C43BB
:104960001C9B0733072293431A0008321C920494BD
:104970000A9A0392524602925C681B680093019463
:1049800043463A0059462800FFF730FA0700119BCA
:1049900001331193EEE502231A002240924623428E
:1049A0001FD001241C9B1A1D1C927A1C914618785A
:1049B00043463A005946A8475346002B16D1119B4F
:1049C000013311934F46D5E5561C434659462020E6
:1049D000B847230032005C1C9D42F5D83D0017000B
:1049E000E0E701233A002F000A9DF4E74A46A94672
:1049F0000A9D06E0571C434659462020C84734000C
:104A00003A00661CA542F5D84D469146D7E71C9B57
:104A10001A1D1C921B6899465346002B00D1013B7E
:104A20004E4601E0013613003278002A02D05A1EA9
:104A3000002BF7D14B46F21A10928023DB002600A0
:104A40001E401C4203D0524501D953461093022305
:104A50001A0022400B92234205D03A0037004C4600
:104A6000A946554620E03A00109B5F46B3462E000B
:104A700006E0551C434639002020B04723002A0099
:104A80005C1C0A999942F4D835005E46BB461094E6
:104A900037004C46A946554606E01D000134561C19
:104AA00043465946C84732002078002804D0002FDA
:104AB000F4D06B1E002DF0D117004D460B9B002B40
:104AC00003D1119B0133119354E50A9F109B06E01B
:104AD000561C434659462020A847230032005C1C40
:104AE0009F42F5D81700ECE721231C431C9B1A1D9D
:104AF0001C921B6800930594082304935346039368
:104B0000102302930023019343463A00594628009C
:104B1000FFF79CF80700119B013311932AE57C1CD9
:104B200043463A0059462520A847119B013311936B
:104B300027001FE57C1C43463A005946A847119BB5
:104B400001331193270015E50A4B9A4610E5AA4652
:104B5000474502D343465A1E00E03A0043465946B1
:104B60000020D047380013B0F0BCBB46B246A9467F
:104B7000A046F0BD593A001000B585B002900391EF
:104B80000121009313004A4202A90248FFF7E2FC08
:104B900005B000BD5B3A001001480421014B1847E5
:104BA000A0040020C94B001010B5010018231B8879
:104BB00014221088984710BD10B5010018231B88D7
:104BC00016221088984710BDF0B5C64600B50700FC
:104BD0000E0000250123984600E00135B5420AD2B7
:104BE000AC003C192068FFF7DFFF20600028F4D1FB
:104BF00000239846F1E7404680BCB846F0BD00006F
:104C0000124A936F9B0815D29066D166002905D091
:104C1000FFE7FFE7FFE7516F106F704704B5802192
:104C20000906C2175140002800D0C84304F020FFF5
:104C3000002104BDF0B5146E556E576F166FFFF767
:104C4000E3FF1466556657671667F0BD000000D095
:104C5000114A936F9B0813D210665166002905D044
:104C6000FFE7FFE7FFE7516F106F704704B50028BB
:104C700001D00020C04304F0FBFE002104BDC0466B
:104C8000F0B5146E556E576F166FFFF7E5FF14669B
:104C9000556657671667F0BD000000D094464E4A2F
:104CA000926F9208624601D230E0C046F0B54A4E9B
:104CB000B56F6D08FCD3346E756E776F366F00F08C
:104CC00025F89446444A1466556657671667624647
:104CD000F0BDC0469446404A926F9208624601D2A7
:104CE00058E0C046F0B53C4EB56F6D08FCD3346E4D
:104CF000756E776F366F00F04DF89446364A14663D
:104D00005566576716676246F0BDC046002B24DB28
:104D100011D000293EDA00B5C943404200D101312B
:104D200000F038F8C943404200D10131DB43524220
:104D300000D1013300BD002AEBD1002801D10029A8
:104D400005D00020C90FC90701D1C043410800B5F3
:104D500004F086FE0022002300BD00B500290ADB16
:104D6000DB43524200D1013300F014F8C943404202
:104D700000D1013100BDC943404200D10131DB43C4
:104D8000524200D1013300F005F8DB43524200D11A
:104D9000013300BD002923D1002B18D1002A0CD0EB
:104DA000BC460D4F38667A6600210023FFE7FFE717
:104DB000FFE77A6F386F67467047002801D00748D1
:104DC000010000B504F04CFE0022002300BD0200EB
:104DD0000B00002000217047000000D0FFFFFFFF04
:104DE000002B00D0BFE0130C28D1002AE7D080B4FC
:104DF000114F39667A66FFE7FFE730B4040C7B6F2A
:104E0000396F1B0423433B667A66FFE7FFE7FFE742
:104E1000C04684B27B6F3D6F1B0423433B667A66BA
:104E2000FFE7FFE7C04600232C042D0C7A6F386F94
:104E300000196941B0BC7047000000D0F0B594463D
:104E40000025140E01D112020835140F01D11201F0
:104E50000435940F01D192000235D40F01D15200D4
:104E60000135D40B0134254F7C66254C3C660E0C75
:104E700093B2FFE7FFE7FFE73C6F6643360C77032B
:104E8000BE467343DF0B5B04C01AB941130C734376
:104E9000DB18C91ACE086643360CB64493B2734386
:104EA0001F0F1B01C01AB941130C73431F0B1B05C5
:104EB000C01AB941860D8F023E436643360C092D58
:104EC00024DB520A7243801A7703460A6643360C83
:104ED00016235B1BDE40DF40BF1964466643821B1E
:104EE0007046043506330100D940A840C01900D3EC
:104EF0000131A24206D20023F0BD0000000000D024
:104F0000FFFFFFFF121B0130F3D3F1E709277F1BDF
:104F1000FE406446A2B27243801A00D20139220CCC
:104F20007243130C1204821A99410B007046043527
:104F300013370100F940A840801900D30131002B3C
:104F400002D1A2420AD2F0BD013000D30131121BBE
:104F5000FAD2013BF8D1A24200D2F0BD013000D319
:104F60000131121BF7E7F0B51C0C00D080E00CB447
:104F700000251C0A04D11B02160E33431202083509
:104F80001C0B04D11B01160F3343120104359C0B7B
:104F900004D19B00960F334392000235DC0B02D103
:104FA00092185B4101351C00971864410134464F4B
:104FB0007C66464C3C660E0CFFE7FFE7FFE7C04609
:104FC0003C6F6643360C7703BE4697B27743C01BEF
:104FD00000D20139C01B00D201399FB27743C91BEF
:104FE000C91B170C77437E04FF0B801BB941CE0809
:104FF0006643360C0C2D33DBB644120B1F053A43C7
:105000001B0B97B27743C01B00D201399FB2774385
:10501000C91B170C77433E043F0C801BB941860D1A
:105020008F023E43664329277F1BFE400C3D774697
:10503000AF40BF1930BCA2B2ABB272437343801A07
:105040009941220C7243130C1204801A99410200F8
:105050000B000137001BA941F9D2781E0021F0BDD9
:105060000C277F1BFE4077467F0BAF40FF19E0E720
:1050700000245D1C07D0144F7D663966FFE7FFE70B
:10508000FFE7FFE73C6F95B29EB265436643401B66
:10509000B141150C1E0C6543664336042F0C3E438C
:1050A0002D04401BB141994204D202000B002000A4
:1050B0000021F0BD01D19042F7D3801A994101340B
:1050C0009942F2D3F6E70000000000D0FFFFFFFF97
:1050D00048404140484018B41B4B5B68FC46019374
:1050E00008BD04DFAB53001018B4174B1B68FC4617
:1050F000019308BD00DFB55300109446134A926F28
:10510000920809D2624618B40F4BDB68FC46019343
:1051100008BD0CDF6D5600100C4AF0B5146E556ECC
:10512000576F166F6246FFF7EEFF084A1466556622
:1051300057671667F0BD18B4034B9B68FC46019394
:1051400008BD08DF11550010FC180020000000D039
:10515000FFB550404240504059404B40594000E05C
:10516000FFB5154F4C00640D03D0BC4204D10C03B5
:1051700014D80020090D09055C00640D03D0BC4261
:1051800004D11C030AD800221B0D1B0501264B402D
:1051900009D44B4003D58B4200D18242FFBD9942D6
:1051A000FCD19042FFBD0B43DB1803431343F5D002
:1051B000C9434918FFBD0000FF07000000B5FFF715
:1051C000CFFF804100BDC04600B5FFF7C9FF01D940
:1051D000002000BD012000BD00B5FFF7B9FF01D9D7
:1051E000002000BD012000BD00B5FFF7B1FF8041E8
:1051F00000BD012040054A00121804D85A001218B8
:1052000001D800207047012070470020704700003F
:105210000021002805D17047C1174840401AFAD034
:10522000C90713B5064B1B6898470CBC441CA24029
:105230001005120B0349091B09051943114310BD41
:10524000FC1900201F04000010B54C00620D8023E3
:10525000D218DB00D21A5B057E2A10DD9E3A13DAE3
:10526000CC170903490819435242D1406400013464
:105270001532202A05DAD0400843604310BD0020D3
:1052800010BD0846604310BDC80FC018013810BDDE
:1052900018B4044B5B6AFC46019308BD24DF1D581B
:1052A00000100000FC18002070B513231C78012C9E
:1052B00014D0012C14DC022C02DC1F4A1F4B9A6410
:1052C0001F48FFF771FC1F4B186070BD99001A480A
:1052D0001A4A885001331F2BF8D9EAE70023FAE76E
:1052E0001948FFF769FC05001848FFF765FC02380C
:1052F00003789B007F2B19DD802229000F4800F0E6
:10530000C1FB022CD7D1124B1A88B5231B029A423B
:1053100009D1104B1A88104B9A4204D10F4B1A88AE
:105320000F4B9A42C7D00020FDF75CFF0D4B0E4A91
:1053300032210E48FDF7BCFE71530010FC1800200E
:105340004C330000FC190020534400005346000079
:1053500054380000D8380000494600009C3800004E
:105360005946000088B9001038BA0010E8B900109A
:1053700007B56046002800D100BE01880A0A023045
:10538000DF2AFAD1C9B2820804D302884088000417
:10539000104300E00068024A5050039007BD00002F
:1053A000FC1800200FB403BC0CBCF0B50124E407CA
:1053B000634000E0F0B50C0DCF0F661E3605891B6B
:1053C000640503D3C943404200D30131640D03D0C7
:1053D000661CF60A07D0E41B00207F00791C8907B1
:1053E0008912803C24031D0DDF0F6E1E36059B1BAA
:1053F0006D0503D3DB43524200D301336D0D03D05F
:105400006E1CF60A07D0ED1B00227F007B1C9B0759
:105410009B12803D2D032F1B661B58D4A446202EC3
:1054200046DA20371400BC401D00BD40F240334135
:105430002A4380185941CB0F05D0C943C0430022ED
:1054400064425041514162464D0D28D10D0D07D1A6
:1054500000281FD0241940414941013A0D0DF9D0CF
:10546000640006D3013000D30131002C01D1400883
:105470004000013A0BD4941CE40A04D112051144F3
:10548000DB071944F0BDD907204B194300E0D907C9
:105490000020F0BD0029DDD1002CDBD1F0BD0132B0
:1054A000C6074008CD0728434908002EE1D0D9E7B8
:1054B0003C2E29DA203E40371400BC4000D00124A5
:1054C000F24014431A00BB401C43D317ACE7AC4670
:1054D000202F08DA20360400B4400D00B540F84013
:1054E00039412843A5E73C2F0CDA203F4036040021
:1054F000B44000D00124F84004430800B1400C43FC
:10550000C117EAE710001900002494E70000F07FBB
:10551000F0B50C0D661E3605891BE60A6405640DA0
:1055200002D0651CED0A04D0002001210905803C51
:105530002403A4461C0D671E3F05DB1BE70A640518
:10554000640D02D0651CED0A04D0002201231B0566
:10555000803C24037740644497B484B296B2744389
:10556000070C7E43150C6F4380B26843361802D394
:10557000012000043F183004350C00197D41844699
:1055800088B29AB250430C0C62431F0C7C438EB21B
:105590007E43921902D301263604A4191604170C6F
:1055A0003618674101BC81B29AB25143040C624380
:1055B0001B0C5C4380B25843121802D30120000434
:1055C00024181004130C401863412D185E4100206C
:1055D000474106BC88B293B258430C0C6343120C8B
:1055E000544389B251435B1802D301210904641862
:1055F00019041A0C091862416D18564100204741E0
:1056000018BCF902720D1143F0026A0D1043ED024D
:105610000A0D03D16D1940414941013B124E9B1BBC
:105620007600B3420ED26D0007D3013000267141DF
:105630006646354301D1400840001B05C918E40700
:105640002144F0BD0BDA013306D1013004D1013120
:105650004F0D01D04908F2E7E1070020F0BD013607
:1056600031050020EBE70000FF030000F0B51C0D42
:10567000671E3F05DB1BE70A6405640D02D0661C4C
:10568000F60A04D0002201231B05803C2403D02508
:105690002D060026F6432E661E096E66CE0FF619FD
:1056A000B44649004F0D02D07E1CF60A03D00020FC
:1056B0000021403F3F033E1BB600B444013F7F053D
:1056C000C91B49082E6F013676089C02950D2543AB
:1056D0007543ED137543AD1301356D10F603761B5D
:1056E0000CB4CC02450D2C43A2B2B3B25A43270CE2
:1056F0007B43350C6F43A4B26C431B1902D30124C6
:1057000024043F191C041D0CA4187D4124196D416B
:10571000009A91B2ACB26143170C7C432B0C5F43EF
:1057200092B25A43A41802D301221204BF182204D1
:10573000230C52187B41019C6C431B19520ED9015A
:105740000A434401A01A81B2B2B2514303145A432E
:10575000360C734387B27743D617D21900277E41A0
:1057600036049B191704160C7F185E417316ED184A
:10577000F301002680337541A90F06D16400690A40
:10578000E8055B0A184309D22FE0042294448033D1
:105790007541A90AA8059B0A184326D340414941EF
:1057A0002404009A019B0D005543641B4343E41AF3
:1057B00095B286B27543170C7E43030C5F4392B2D9
:1057C0005A43B61802D301221204BF183204330C14
:1057D00052197B4152429C41002C02D400220130DC
:1057E00051414008CA071043490802B06246D70732
:1057F0009210084BD218084B9A4203D2120589180E
:10580000C919F0BD0020002A01DC3900F0BD0133C8
:105810001905F5E7FD030000FE070000002200B5B2
:10582000203200F004F8080000BD000000220B1533
:105830000AD410B5944600F031F81414013400DA9B
:105840000021CB17144C20470020002170476244F0
:10585000343A0CD40C2A07DA0400914090405242AA
:105860002032D440214310BDD843D94310BD20324B
:1058700007D40C469440524220321141D04020437C
:1058800010BD0800C917203203D452422032104103
:1058900010BD1800190010BD4F5800100A0DCC0F94
:1058A000531E1B05C91A520503D3C943404200D3F6
:1058B0000131520D03D0531CDB0A07D0121B00200C
:1058C0006400611C89078912803A1203014BD21AC5
:1058D00070470000FF03000051434343C9188C4642
:1058E000110C83B24B4310B4040C614392B280B2EA
:1058F000504362431C041B0C001910BC5941130493
:10590000120CC018514161447047000070B5132358
:105910001D782A48FFF750F90400012D11D0012D00
:1059200009DDA31E1B789B007F2B40DD8022210018
:10593000234800F0A7F82348FFF736F9224B1860F8
:1059400070BD542201001E4800F09CF81F4B1A88BD
:105950001F4B9A421CD1A7239B011A881D4B9A42C8
:1059600016D11D4B1A881D4B9A4211D11C4B1A8817
:1059700094239B019A420BD11A4B1A881A4B9A42D4
:1059800006D11A4B1A681A4B9A4201D1152307E027
:105990001848FDF727FC99001748094A8850013339
:1059A0001F2BF8D9144A064B1A62DA61B7E7134B7A
:1059B000134A42211348FDF77BFBC04653460000C3
:1059C000001A00204C330000FC190020EE290000D2
:1059D000C40F0000C20D0000962B0000C0B50000EF
:1059E000182B0000CC2A000010B50000FC2C000091
:1059F00051ED876480A10010095A00104CBA0010C4
:105A0000CCBA001080BA001007B56046002800D15B
:105A100000BE01880A0A0230DF2AFAD1C9B2820820
:105A200004D3028840880004104300E00068024A62
:105A30005050039007BD0000001A002010B504006C
:105A400002F0E0FF002804D00419034B9C4200D868
:105A500010BD0248FDF7C6FB00000420E0BA0010AC
:105A600010B502F0D9FF10BD01480421014B1847C1
:105A7000B0040020C94B0010014B1B681847000000
:105A8000B0040020014B5B6818470000B004002000
:105A900010B50300080011001B68984710BD0000F6
:105AA000F8B507000D001600437C002B02D000243F
:105AB00000200CE003681100280098472DE03B7C93
:105AC00010E0022115483B689847601C0134B4423D
:105AD00014DA002CF3DD2B19013B1B780D3B5A42E5
